:100000000C9434000C94BC090C94EB090C94F50985
:100010000C945A000C945A000C945A000C94340618
:100020000C9452040C945A000C945A000C945409E9
:100030000C94B2090C945A000C9412090C944A09BD
:100040000C94FF090C945A000C941F070C9498060A
:100050000C9474060C945A000C945A000C945A0098
:100060000C945A000C945A0014BE88E10FB6F89410
:1000700080936000109260000FBE11241FBECFEF6E
:10008000D8E0DEBFCDBF11E0A0E0B1E0EAEAF4E1E4
:1000900002C005900D92A032B107D9F722E0A0E28C
:1000A000B1E001C01D92A431B207E1F70E94A4079C
:1000B0000C94530A0C94000084E0809321018FE794
:1000C000809320010895CF9341E061E082E00E9497
:1000D0006D03000060E082E00E94B803C1E081305F
:1000E00009F0C0E040E061E082E00E946D030000A2
:1000F00060E082E00E94B803811101C0CF5F41E05F
:1001000061E082E00E946D03000060E082E00E94F6
:10011000B803813009F4CF5F40E061E082E00E94E3
:100120006D03000060E082E00E94B803811101C00D
:10013000CF5F41E061E082E00E946D03000060E07B
:1001400082E00E94B803813009F4CF5F40E061E0B3
:1001500082E00E946D03000060E082E00E94B8032C
:10016000811101C0CF5F40E061E082E00E946D0339
:10017000C630D9F080E090E00E94390A8130A9F4BD
:1001800082E090E00E94390A8F3F09F483E0809377
:10019000210181E090E00E94390A96EF980F96378E
:1001A00008F08DE08093200103C084E0809321015A
:1001B00080912101843041F080912101813021F032
:1001C00080912101811103C08FE78093200180E09D
:1001D000CF910895CF93C42F613019F06230E9F0C8
:1001E00035C08CEF840F8B3F88F1642F82E090E064
:1001F0000E94410AF999FECF82E090E00E94390AFC
:100200008C1711F08CEE23C061E080E090E00E943A
:10021000410AF999FECF80E01AC086EF840F863735
:10022000A8F4642F81E090E00E94410AF999FECF82
:1002300081E090E00E94390A8C13E4CF61E080E015
:1002400090E00E94410AF999FECFE5CF8DEFCF9162
:100250000895CF93DF93EA01613029F0623091F481
:1002600081E090E002C082E090E00E94390A888339
:1002700080E090E00E94390A813011F480E003C0F0
:100280008BEF01C08DEFDF91CF9108959091210107
:1002900081E0943009F080E008959091210181E09F
:1002A000913009F080E008959091210181E0923031
:1002B00009F080E008959091210181E0933009F0E8
:1002C00080E00895CF93DF93EC010E945C00FE0173
:1002D000EF5BFF4F1082CD5BDF4F8FE38883DF91B1
:1002E000CF9108950C946300CF92DF92EF92FF922A
:1002F0000F931F93CF93DF93CDB7DEB7C054D109CF
:100300000FB6F894DEBF0FBECDBFFB01BA0183E28A
:10031000898380818A8381818B8382818C83F901A7
:1003200040814D8385E0D82ED40E8FEF840F8A3321
:1003300028F450E0CE0106960E94290A6D2D8E0108
:100340000F5F1F4FC8010E94BB04C82E78018E2D7D
:10035000801B8D1530F4F70181917F010E94840884
:10036000F6CF8C2D0E948408C05CDF4F0FB6F89446
:10037000DEBF0FBECDBFDF91CF911F910F91FF90D8
:10038000EF90DF90CF900895CF93DF9300D01F922E
:10039000CDB7DEB79A0148E4498342E54A8341E19B
:1003A0004B83AB01BE016F5F7F4F0E9474010F90C2
:1003B0000F900F90DF91CF910895FF920F931F93AD
:1003C000CF93DF9300D000D0CDB7DEB78C011C8275
:1003D000FC018081833229F08EEF8B835EEFF52E56
:1003E00075C0F80191818281913221F09F3309F427
:1003F00044C05FC08D34D9F0833581F0833409F077
:1004000058C0F8018481813031F445816381C8018D
:100410000E94EA000AC04CEFF42E2CC0F80164815F
:1004200070E0C80105960E94CF04F82E23C0F801A1
:100430008381853088F480932101C8010E944601A0
:1004400081113CC0C8010E944D01811137C0F801E3
:100450008381882399F138C0803F51F4F89488E073
:100460008093600040E067E084E00E94A003FACF40
:100470003DEFF32EFB821C8229C0833439F08D348A
:10048000D1F4809121018B83F12C20C0F80184816B
:10049000811109C0A8014B5F5F4F6381C8010E94B1
:1004A0002901F82E02C02CEFF22EFB8281E08C8312
:1004B0000DC08DEF8B839DEFF92E08C08FB7F89498
:1004C0009FE7909320018FBFF12CD4CFF801818159
:1004D00089838281805E8A83A8014B5F5F4F9E0182
:1004E0002C5F3F4FBE016F5F7F4FC8010E947401B8
:1004F0008F2D0F900F900F900F90DF91CF911F9144
:100500000F91FF900895BF92CF92DF92EF92FF92EA
:100510000F931F93CF93DF9300D000D0CDB7DEB7FA
:100520007C018C010F5B1F4FD8018C91F701ED5BB3
:10053000FF4F6F0181110CC03197108285E0D60109
:100540008C9381E0F8018083349610823197108279
:10055000D8018C91833031F4F701EC5BFF4F60835D
:1005600085E08C93F80180818430E9F4F701EB5B3E
:10057000FF4F8081803430F0D8011C928FEFF6015C
:10058000808311C0D701A80FB11D15966C938F5FA2
:100590008083D6018C9181508C93823024F483E047
:1005A000F80180831C92D8018C91823081F5F7018B
:1005B000EE5BFF4F80818F5F8083853020F4D70111
:1005C000A80FB11D6C93D6019C9191509C938430DF
:1005D000F0F0D70114968C91811105C083E0D80109
:1005E0008C93D60108C08F5FD6018C938C332CF08E
:1005F0008FEF8C93D8011C9203C084E0D8018C93B8
:100600001082F601808187FF02C0D8011C92F80198
:1006100080818130B9F4633269F4F701EE5BFF4FFA
:100620001082D7016C9382E0F801808384E0D601C8
:100630008C9308C0F601808181508083811102C0B3
:10064000D8011C92F801B080F5E0BF122BC0D70191
:1006500014966C916B5FC7010E94BB04F701EC5BC1
:10066000FF4F9081891306C086E0F8018083D60190
:100670001C9218C08FE389838A8385EF8B83F701EF
:100680001482BC829E012C5F3F4F40E050E0BE01CF
:100690006F5F7F4FC7010E947401D8011C928FEFDA
:1006A000F6018083D8018C91863039F4C7010E940D
:1006B000DD01F8011082D6011C92F60180810F90B5
:1006C0000F900F900F90DF91CF911F910F91FF909E
:1006D000EF90DF90CF90BF9008955FB7F89421E03E
:1006E00030E0062E01C0220F0A94EAF7922F90956F
:1006F000833079F08430C1F0823001F584B1822BEF
:1007000084B985B1442311F0822B01C0892385B9B6
:1007100015C087B1822B87B988B1442311F0822B91
:1007200001C0892388B90AC08AB1822B8AB98BB1EA
:10073000442311F0822B01C089238BB95FBF089538
:100740000C946D039FB7F89421E030E0062E01C0B1
:10075000220F0A94EAF7833031F0843031F082308E
:1007600029F423B903C026B901C029B99FBF089550
:10077000CF93DF931F92CDB7DEB719829FB7F8945E
:10078000833031F0843031F0823031F483B103C0F2
:1007900086B101C089B189839FBF898121E030E0A2
:1007A00002C0220F331F6A95E2F790E02823392315
:1007B00081E0121613060CF080E00F90DF91CF91CC
:1007C0000895219A29982098289A85B78F7E85BF09
:1007D00008959FB7F894E1ECF0E0808187768083FC
:1007E000E4E6F0E080818D7F808380E48093C00028
:1007F0001092C50087E68093C40086E08093C20013
:100800009FBF8FB7F8945098589A519A59988FBFB4
:100810009FB7F894E1ECF0E08081886980839FBF06
:100820000895CF93DF939FB7F894A0E7B0E08C9141
:10083000897F8C93E1EBF0E080818D7F80838081E4
:1008400085608083C0EBD0E088818C7F8883808145
:10085000877F808382E88093B3008DE78093B40024
:100860001092B20086E087BB8C9184608C939FBF0E
:10087000DF91CF9108959FB7F894809322019FBF95
:100880000895CF93DF931F92CDB7DEB719828FB74C
:10089000F8949091220199838FBF89810F90DF9105
:1008A000CF9108951F920F920FB60F9211242F939C
:1008B0005F936F937F938F939F93AF93BF93809139
:1008C00023019091240101969093240180932301A8
:1008D0008091230190912401893E9D4F20F0109238
:1008E00024011092230180912201882379F08091C4
:1008F00023019091240164E670E00E94150A892B7F
:1009000029F4809122018150809322018091B200CC
:1009100083588093B400BF91AF919F918F917F9145
:100920006F915F912F910F900FBE0F901F901895B0
:10093000EBE2F1E0DF0111971C921082329681E028
:10094000EF33F807B9F710923E0110923F01109271
:10095000CF011092D0010E94E1030E94E9030E949E
:10096000110440E067E084E00E94A00340E065E0FD
:1009700084E00C94A003282FFC0180E03CE09E2F33
:10098000921B961758F487FF03C0832791E001C09C
:1009900090E0880F892B91918927F1CF08951F93BB
:1009A000CF93DF93EB01209741F13091CF0120915C
:1009B000D001321324C06034710508F52091200164
:1009C00020682093D101AB01BC0182ED91E00E942F
:1009D000290A1C2F1F5F612F81ED91E00E94BB044B
:1009E000FE01E153FE4F83838FB7F8941093CF013C
:1009F0001092D0018FBF40E004C0CFEF01C0C6EF1E
:100A000041E065E084E00E94A0038C2FDF91CF914C
:100A10001F91089560FF43C090912701E92FF0E0F6
:100A2000E25CFE4F128280912601E0913E01F0E0EF
:100A3000EE0FFF1FE65DFE4F21E0280F21839F5F31
:100A40009F7390932701813019F49091250101C083
:100A500090E090931202823048F0809120018068EB
:100A600090912901981302C00E94F30580913E01E4
:100A70008F5F6AE00E94090A90933E01E92FF0E03F
:100A8000EE0FFF1FE65DFE4F8091270180831182EC
:100A9000109226011092280110922901089561FDFB
:100AA0001BC090912701E92FF0E0E25CFE4F8283AA
:100AB0009F5F9F739093270180932501909126015A
:100AC0009F5F90932601909128019F5F909328014A
:100AD000923011F480932901089581E020913E0124
:100AE00090913F01291301C080E00895EF92FF9299
:100AF0000F931F93CF93DF93EC01FFB6F8940E94FE
:100B00006D05811102C020E03CC0E0913F01F0E0A2
:100B1000EE0FFF1FE65DFE4F2181222349F1DE012A
:100B2000AE5BBF4F2C9311823081E32EE20ECE01DB
:100B30000296632F70E04FE34E1528F0422F50E0ED
:100B4000605C7E4F11C000E4031B10E0605C7E4FD0
:100B5000A8010E94290AC801029640EC4E0D50E0FF
:100B600060E471E08C0F9D1F0E94290A21E001C002
:100B700020E080913F018F5F6AE00E94090A909314
:100B80003F01FFBE822FDF91CF911F910F91FF9008
:100B9000EF900895CF93DF931F92CDB7DEB790917A
:100BA000C1009983813031F489818F76898389816D
:100BB000806205C089818F7D89838981806989836D
:100BC00089818093C1000F90DF91CF91089580912A
:100BD000C00087FF03C08091C600F9CF1092860144
:100BE00080E00C94CA0580918101823031F48091BB
:100BF0002001809312021092810108950E94410405
:100C0000811102C080E008950E9441048230D0F733
:100C100080E00E943B040E94E7058FEF08958091D9
:100C2000C00085FFFCCF809182018111FCCF8FB77E
:100C3000F89491E0909382018FBF8091C1008779F1
:100C40008093C1005998519A85E0809386018091E4
:100C5000B2008E578093B30082E087BB8091700012
:100C600082608093700008951F920F920FB60F92CA
:100C700011242F933F934F935F936F937F938F93A1
:100C80009F93AF93BF93EF93FF938091820188234B
:100C9000C1F0809170008D7F80937000519A599AB5
:100CA0008091C10088608093C10080E00E943B0475
:100CB00040E065E084E00E94A003109282010E945F
:100CC000E70582E087BBFF91EF91BF91AF919F91C4
:100CD0008F917F916F915F914F913F912F910F90E5
:100CE0000FBE0F901F9018951F920F920FB60F9284
:100CF00011242F933F934F935F936F937F938F9321
:100D00009F93AF93BF93EF93FF930E940F06FF91C2
:100D1000EF91BF91AF919F918F917F916F915F9173
:100D20004F913F912F910F900FBE0F901F901895EC
:100D30001F920F920FB60F9211242F933F934F9350
:100D40005F936F937F938F939F93AF93BF93CF9353
:100D5000EF93FF9380918601813019F08330D9F0B1
:100D600055C082E0809386018AE00E943B04809116
:100D7000D001809385018091200180688093840157
:100D800041E065E084E00E94A0038091200180683A
:100D90008093C6002CC08091D0019091CF0189171B
:100DA00050F5E82FF0E0E153FE4FC38190918501AB
:100DB00089130BC0C7FF02C092E001C091E090937D
:100DC00081019C2F9F77909383018F5F8093D00147
:100DD000C093840141E065E084E00E94A003C093D9
:100DE000C60084E0809386018AE00E943B0480E094
:100DF0000E94CA0512C08091C1008F7D8093C100FE
:100E00008091C10080648093C10007C08091C100BF
:100E10008F7D8093C1000E94E705FF91EF91CF91F4
:100E2000BF91AF919F918F917F916F915F914F9102
:100E30003F912F910F900FBE0F901F9018951F920A
:100E40000F920FB60F9211241F932F933F934F933E
:100E50005F936F937F938F939F93AF93BF93CF9342
:100E6000DF93EF93FF9380918601823011F08430FD
:100E700079F58091C00087FF53C080E00E943B0459
:100E80008091C60090918401981739F08091850176
:100E90008093D0010E940F0603C083E080938601F7
:100EA00081E03CC01091C600D4FF17C040E067E06D
:100EB00084E00E94A003C1E0DC7031F0C26040E039
:100EC00067E084E00E94A0036C2F812F0E940A0536
:100ED000D091C000D7FDE6CF07C041E067E084E0D5
:100EE0000E94A003C0E0E8CF8091120290912001FF
:100EF00020918101213021F4813021F0843011F0E2
:100F0000891304C01092810181E001C080E0109239
:100F10001202882329F081E0809386010E94CA058D
:100F2000FF91EF91DF91CF91BF91AF919F918F9101
:100F30007F916F915F914F913F912F911F910F90F2
:100F40000FBE0F901F901895CF93DF93CDB7DEB7EC
:100F5000C25AD1090FB6F894DEBF0FBECDBFF894C8
:100F6000CE0101960E9462010E949804CE01019672
:100F70000E9472010E944A0878940E94BB08811165
:100F80000E94C40860E071E0CE0186579F4F0E9426
:100F9000320ACE0186579F4F0E94AF086FE071E082
:100FA000CE0186579F4F0E94320ACE0186579F4F2F
:100FB0000E94AF0897E4E92EF12CEC0EFD1E82E0B2
:100FC000E80EF11C01E315E7CE01895B9F4F0E94FB
:100FD00076058823E9F0CE0101960E944601811131
:100FE00032C0CE0101960E94540181112CC0CE0165
:100FF00001960E944D01811139C0CE0101960E94D7
:101000005B01811133C0C757DF4F1882C958D040E8
:10101000CE0101960E944601882361F00E94FE05E0
:10102000015011090115110579F667E084E00E946D
:10103000A203C8CF8FE3D82E0E94BB08882371F388
:10104000D1101DC0EBCFD12CC757DF4F8881C958B5
:10105000D040D816C0F6E7E4F0E0EC0FFD1FED0D30
:10106000F11D82810E948408D394EECFAE014757D0
:101070005F4FB701CE0101960E94C401C4CF0E9408
:10108000C408682FCE0101960E948302D82E87FFE4
:10109000D3CFC4CF1092CD011092CC0181E08093C8
:1010A000CE018AE08093CA011092C9011092130206
:1010B000E4E6F0E08081887F808382EC84BD22E0DA
:1010C00025BD109280008AE8809381008CE990E031
:1010D000909389008093880087E085BB87E286BB78
:1010E000569A52985A9AE9E6F0E0808182608083AD
:1010F00020936E00EFE6F0E080818D7F808385B5E0
:10110000806885BDE89A08959091CE019923E1F316
:101110009FB7F8941092CE019FBF90916E009D7F73
:1011200090936E00569A98E697BD16BC8095809372
:10113000CC018AE08093CD0182E884BD85B58068CA
:1011400085BD8091CD0181508093CD0116BC82E098
:1011500085BB80916E00826080936E000895CF936E
:10116000DF93EC018991882319F00E948408FACF5B
:10117000DF91CF910895209188019091870181E0BE
:10118000291301C080E008950E94BB088823E1F381
:10119000E0918801FF27E7FDF095E957FE4F828136
:1011A0002FB7F894909188019F5F90938801909158
:1011B00088019F7B97FF03C09150906C9F5F909335
:1011C00088012FBF0895209188014091870133271E
:1011D00027FD309521503109552747FD509524179B
:1011E0003507C9F0E0918701FF27E7FDF095E95742
:1011F000FE4F8283809187018F5F8093870180916A
:1012000087018F7B87FF03C08150806C8F5F809345
:10121000870180E008958FEF089580918701809382
:10122000880108951F920F920FB60F9211248F9389
:101230008091CD01882301F18091CD01823030F47D
:1012400082EC84BD85B5806885BD10C08091CC01DD
:1012500080FD02C082EC01C082E884BD85B5806853
:1012600085BD8091CC0186958093CC018091CD0184
:1012700081508093CD0108C080916E008D7F809356
:101280006E0081E08093CE018F910F900FBE0F9082
:101290001F9018951F920F920FB60F9211240F9066
:1012A0000FBE0F901F9018951F920F920FB60F92BE
:1012B00011242F933F934F935F936F937F938F935B
:1012C0009F93AF93BF93EF93FF938091CA018823BD
:1012D000C1F188E690E09093890080938800809126
:1012E000CA0181508093CA018091CA01823098F06E
:1012F00080911302882329F14A9B07C09091C9016C
:1013000080911302892B8093C90180911302880F69
:101310008093130216C080916F008D7F80936F00C1
:101320008091C9010E94E3088F3F31F40E940D09AA
:101330008091C9010E94E3081092CA0181E08CBB30
:10134000E89AFF91EF91BF91AF919F918F917F911B
:101350006F915F914F913F912F910F900FBE0F9022
:101360001F9018951F920F920FB60F9211240F9095
:101370000FBE0F901F9018951F920F920FB60F92ED
:1013800011248F939F934A991FC0E89880916F0012
:101390008D7F80936F008AE08093CA011092C9010B
:1013A00081E0809313028CE990E090938900809310
:1013B0008800109285001092840082E086BB8091A4
:1013C0006F00826080936F009F918F910F900FBE8E
:1013D0000F901F9018951F920F920FB60F92112425
:1013E0000F900FBE0F901F9018951F920F920FB67F
:1013F0000F9211240F900FBE0F901F9018951F92FF
:101400000F920FB60F9211240F900FBE0F901F90E6
:101410001895991B79E004C0991F961708F0961B40
:10142000881F7A95C9F780950895AA1BBB1B51E1C7
:1014300007C0AA1FBB1FA617B70710F0A61BB70B44
:10144000881F991F5A95A9F780959095BC01CD01E9
:101450000895FB01DC0102C001900D924150504003
:10146000D8F70895FB01DC0101900D920020E1F70F
:101470000895F999FECF92BD81BDF89A992780B55C
:101480000895262FF999FECF92BD81BDF89A019754
:1014900000B4021639F01FBA20BD0FB6F894FA9ABC
:0A14A000F99A0FBE0895F894FFCFEB
:1014AA0050696475696E6F20302E302E350D006AD2
:1014BA00756E6B792D7A7340676D782E64650D00B1
:00000001FF
