:100000001DC043C042C041C040C03FC03EC03DC013
:100010003CC03BC03AC039C038C037C036C035C01C
:1000200034C0E0C50BC431C030C09AC8A3C8D7C81B
:10003000E0C82BC0B4C632C60EC627C014BE88EDB9
:1000400090E00FB6F894A8958093710091B5977FD2
:1000500091BD0FBE11241FBECFEFD2E0DEBFCDBFDA
:1000600011E0A0E0B1E0ECEFF2E102C005900D92EA
:10007000A232B107D9F722E0A2E2B1E001C01D929D
:10008000AF30B207E1F709D737C9BACF84E0809320
:1000900023018FE7809322010895CF9341E067E029
:1000A00081E0DCD2000062E082E012D3C1E0813066
:1000B00009F0C0E040E067E081E0D0D2000062E0FB
:1000C00082E006D3811101C0CF5F41E067E081E0AB
:1000D000C5D2000062E082E0FBD2813009F4CF5F3C
:1000E00040E067E081E0BAD2000062E082E0F0D256
:1000F000811101C0CF5F41E067E081E0AFD2000035
:1001000062E082E0E5D2813009F4CF5F40E067E051
:1001100081E0A4D2000062E082E0DAD2811101C065
:10012000CF5F40E067E081E099D2C630C1F080E067
:1001300090E0C8D8813099F482E090E0C3D88F3F36
:1001400009F483E08093230181E090E0BBD896EF2F
:10015000980F963708F08DE08093220103C084E069
:100160008093230180912301843041F08091230109
:10017000813021F080912301811103C08FE78093AA
:10018000220180E0CF910895CF93C42F613019F000
:100190006230D1F02FC08CEF840F8B3F58F1642F69
:1001A00082E090E097D8E199FECF82E090E08AD893
:1001B0008C1711F08CEE1FC061E080E090E08AD8CF
:1001C000E199FECF80E017C086EF840F863790F468
:1001D000642F81E090E07ED8E199FECF81E090E04D
:1001E00071D88C13E7CF61E080E090E073D8E1999B
:1001F000FECFE8CF8DEFCF910895CF93DF93EA0143
:10020000613029F0623081F481E090E002C082E048
:1002100090E058D8888380E090E054D8813011F481
:1002200080E003C08BEF01C08DEFDF91CF91089587
:100230009091230181E0943009F080E0089590913D
:10024000230181E0913009F080E00895909123012D
:1002500081E0923009F080E008959091230181E0DF
:10026000933009F080E00895CF93DF93EC010EDF27
:10027000FE01EF5BFF4F1082CD5BDF4F8FE3888382
:10028000DF91CF91089509CFCF92DF92EF92FF9245
:100290000F931F93CF93DF93CDB7DEB7C054D1092F
:1002A0000FB6F894DEBF0FBECDBFFB01BA0183E2EB
:1002B000898380818A8381818B8382818C83F90108
:1002C00040814D8385E0D82ED40E8FEF840F8A3382
:1002D00020F450E0CE010696E5D76D2D8E010F5F1C
:1002E0001F4FC80113D3C82E78018E2D801B60E0EC
:1002F0008D1528F4F70181917F01B5D6F6CF8C2DAD
:10030000B2D6C05CDF4F0FB6F894DEBF0FBECDBFD4
:10031000DF91CF911F910F91FF90EF90DF90CF90E1
:100320000895CF93DF9300D01F92CDB7DEB79A0127
:1003300048E4498342E54A8341E14B83AB01BE0176
:100340006F5F7F4FA1DF0F900F900F90DF91CF91E4
:100350000895FF920F931F93CF93DF9300D000D0A7
:10036000CDB7DEB78C011C82FC018081833229F07D
:100370008EEF8B835EEFF52E6EC0F8019181828146
:10038000913221F09F3309F43EC058C08D34C9F03A
:10039000833579F0833409F051C0F80184818130CC
:1003A00029F445816381C801EFDE09C04CEFF42ECA
:1003B00027C0F801648170E0C8010596BBD2F82E11
:1003C0001FC0F8018381853078F480932301C80130
:1003D0002FDF811138C0C80132DF811134C0F8012C
:1003E0008381882381F135C0803F41F4F89488E00F
:1003F00081BD40E060E081E058D1FBCF3DEFF32EBE
:10040000FB821C8228C0833439F08D34C9F480917A
:1004100023018B83F12C1FC0F8018481811108C056
:10042000A8014B5F5F4F6381C801E7DEF82E02C071
:100430002CEFF22EFB8281E08C830DC08DEF8B833D
:100440009DEFF92E08C08FB7F8949FE79093220193
:100450008FBFF12CD5CFF801818189838281805EA5
:100460008A83A8014B5F5F4F9E012C5F3F4FBE0107
:100470006F5F7F4FC80108DF8F2D0F900F900F9097
:100480000F90DF91CF911F910F91FF900895BF9230
:10049000CF92DF92EF92FF920F931F93CF93DF9350
:1004A00000D000D0CDB7DEB77C018C010F5B1F4FB1
:1004B000D8018C91F701ED5BFF4F6F0181110CC0EA
:1004C0003197108285E0D6018C9381E0F80180831A
:1004D0003496108231971082D8018C91833031F498
:1004E000F701EC5BFF4F608385E08C93F80180811E
:1004F0008430E9F4F701EB5BFF4F8081803430F00A
:10050000D8011C928FEFF601808311C0D701A80F8C
:10051000B11D15966C938F5F8083D6018C918150AD
:100520008C93823024F483E0F80180831C92D801FC
:100530008C91823081F5F701EE5BFF4F80818F5FF8
:100540008083853020F4D701A80FB11D6C93D601AC
:100550009C9191509C938430F0F0D70114968C912B
:10056000811105C083E0D8018C93D60108C08F5F4C
:10057000D6018C938C332CF08FEF8C93D8011C9286
:1005800003C084E0D8018C931082F601808187FF3C
:1005900002C0D8011C92F80180818130B9F4633225
:1005A00069F4F701EE5BFF4F1082D7016C9382E094
:1005B000F801808384E0D6018C9308C0F601808125
:1005C00081508083811102C0D8011C92F801B08053
:1005D000F5E0BF1229C0D70114966C916B5FC7017B
:1005E00095D1F701EC5BFF4F9081891306C086E03F
:1005F000F8018083D6011C9217C08FE389838A8318
:1006000085EF8B83F7011482BC829E012C5F3F4FE4
:1006100040E050E0BE016F5F7F4FC70135DED8017B
:100620001C928FEFF6018083D8018C91863031F4D3
:10063000C7018FDEF8011082D6011C92F60180817D
:100640000F900F900F900F90DF91CF911F910F910E
:10065000FF90EF90DF90CF90BF9008955FB7F89430
:1006600021E030E0062E01C0220F0A94EAF7922F13
:100670009095813019F0823061F015C08AB3822BD9
:100680008ABB8BB3442311F0822B01C089238BBB1F
:100690000AC087B3822B87BB88B3442311F0822B17
:1006A00001C0892388BB5FBF0895D8CF9FB7F89456
:1006B00021E030E0062E01C0220F0A94EAF78130D3
:1006C00021F0823019F426BB01C029BB9FBF0895D9
:1006D000CF93DF931F92CDB7DEB719829FB7F894FF
:1006E000813021F0823021F486B301C089B389833F
:1006F0009FBF898121E030E002C0220F331F6A953D
:10070000E2F790E02823392381E0121613060CF05B
:1007100080E00F90DF91CF910895D79ADF98E3E6BC
:10072000F0E080818F778083BA98E2E6F0E0808104
:100730008460808308950F931F93CF93DF930FB747
:10074000F894E5E8F0E0808187768083C0E7D0E028
:1007500088818F7D888310E41093860060E07BE4BD
:1007600080E02ED4E5E9F0E080818776808388817F
:100770008F7B88831093960060E875E281E020D437
:100780000FBF8FB7F894D298DA9AD19AD498DC9A9E
:10079000D59ADD988FBF9FB7F894E5E8F0E08081A7
:1007A00088698083E5E9F0E08081886980839FBF64
:1007B000DF91CF911F910F9108952FB7F89481B3D6
:1007C000897F81BBE9ECF0E080818A7F8083808132
:1007D00082608083AAECB0E08C918C7F8C938081C6
:1007E000877F808384E195E09093C5008093C40067
:1007F0008DE790E09093C3008093C2001092C700F1
:100800001092C60086E080BB8A9A2FBF08959FB7DA
:10081000F894809324019FBF0895CF93DF931F9294
:10082000CDB7DEB719828FB7F894909124019983E0
:100830008FBF89810F90DF91CF9108951F920F9202
:100840000FB60F9211242F935F936F937F938F9323
:100850009F93AF93BF9380912501909126010196BC
:100860009093260180932501809125019091260186
:10087000893E9D4F20F01092260110922501809113
:100880002401882371F0809125019091260164E66E
:1008900070E0D2D4892B29F4809124018150809377
:1008A00024018091C6009091C70083589F4F909378
:1008B000C3008093C200BF91AF919F918F917F91B0
:1008C0006F915F912F910F900FBE0F901F90189511
:1008D000EDE2F1E0DF0111971C921082329681E087
:1008E000E134F807B9F710924001109241011092DB
:1008F000CB011092CC0111DF1EDF5FDF40E060E032
:1009000081E0D3DE40E063E081E0CFCE282FFC0120
:1009100080E03CE09E2F921B961758F487FF03C09F
:10092000832791E001C090E0880F892B919189275E
:10093000F1CF08951F93CF93DF93EB01209731F10F
:100940003091CB012091CC01321322C0603471056B
:10095000F8F42091220120682093CD01AB01BC0165
:100960008EEC91E09FD41C2F1F5F612F8DEC91E0E6
:10097000CDDFFE01E553FE4F83838FB7F8941093CC
:10098000CB011092CC018FBF40E004C0CFEF01C07B
:10099000C6EF41E063E081E088DE8C2FDF91CF91EC
:1009A0001F91089560FF41C090912901E92FF0E067
:1009B000E05CFE4F128280912801E0914001F0E05E
:1009C000EE0FFF1FE45DFE4F21E0280F21839F5FA4
:1009D0009F7390932901813019F49091270101C0F0
:1009E00090E090930E02823040F080912201806866
:1009F00090912B01981301C0B7D0809140018F5F77
:100A00006AE001D490934001E92FF0E0EE0FFF1F60
:100A1000E45DFE4F809129018083118210922801AC
:100A200010922A0110922B01089561FD1BC0909134
:100A30002901E92FF0E0E05CFE4F82839F5F9F7306
:100A40009093290180932701909128019F5F9093B3
:100A5000280190912A019F5F90932A01923011F40E
:100A600080932B01089581E02091400190914101F4
:100A7000291301C080E00895EF92FF920F931F9316
:100A8000CF93DF93EC01FFB6F894EDDF811102C044
:100A900020E039C0E0914101F0E0EE0FFF1FE45D7E
:100AA000FE4F2181222339F1DE01AE5BBF4F2C9333
:100AB00011823081E32EE20ECE010296632F70E0A8
:100AC0004FE34E1528F0422F50E06E5B7E4F10C072
:100AD00000E4031B10E06E5B7E4FA801E3D3C80166
:100AE000029640EC4E0D50E062E471E08C0F9D1FC9
:100AF000D9D321E001C020E0809141018F5F6AE0FD
:100B000082D390934101FFBE822FDF91CF911F913D
:100B10000F91FF90EF900895CF93DF931F92CDB781
:100B2000DEB7909195009983813031F489818F7679
:100B300089838981806205C089818F7D89838981CC
:100B4000806989838981809395000F90DF91CF918F
:100B500008958091960087FF03C080919000F9CF9F
:100B60001092880180E0D8CF80918301823031F4E7
:100B70008091220180930E021092830108954DDE30
:100B8000811102C080E0089548DE8230D8F780E00D
:100B90003EDEDFDF8FEF08958091960085FFFCCF6A
:100BA000809184018111FCCF8FB7F89491E09093EC
:100BB00084018FBF80919500877980939500DD989F
:100BC000D59A85E0809388018091C6009091C700F6
:100BD0008C5E9A4F9093C5008093C40082E080BBE6
:100BE000899A08951F920F920FB60F9211242F9396
:100BF0003F934F935F936F937F938F939F93AF93A5
:100C0000BF93EF93FF9380918401882389F08998A3
:100C1000D59ADD9A8091950088608093950080E058
:100C2000F6DD40E063E081E040DD1092840191DF79
:100C300082E080BBFF91EF91BF91AF919F918F9127
:100C40007F916F915F914F913F912F910F900FBEC8
:100C50000F901F9018951F920F920FB60F921124AC
:100C60002F933F934F935F936F937F938F939F93B4
:100C7000AF93BF93EF93FF938FDFFF91EF91BF91FE
:100C8000AF919F918F917F916F915F914F913F9124
:100C90002F910F900FBE0F901F9018951F920F92DB
:100CA0000FB60F9211242F933F934F935F936F933F
:100CB0007F938F939F93AF93BF93CF93EF93FF93C4
:100CC00080918801813019F08330C9F050C082E0F2
:100CD000809388018AE09BDD8091CC01809387011D
:100CE0008091220180688093860141E063E081E089
:100CF000DCDC809122018068809390002AC0809182
:100D0000CC019091CB01891738F5E82FF0E0E5533D
:100D1000FE4FC3819091870189130BC0C7FF02C0AA
:100D200092E001C091E0909383019C2F9F77909374
:100D300085018F5F8093CC01C093860141E063E021
:100D400081E0B3DCC093900084E0809388018AE066
:100D50005EDD80E0E1DE11C0809195008F7D8093A3
:100D600095008091950080648093950006C08091E5
:100D700095008F7D80939500ECDEFF91EF91CF91F0
:100D8000BF91AF919F918F917F916F915F914F91A3
:100D90003F912F910F900FBE0F901F9018951F92AB
:100DA0000F920FB60F9211241F932F933F934F93DF
:100DB0005F936F937F938F939F93AF93BF93CF93E3
:100DC000DF93EF93FF9380918801823011F084309C
:100DD00051F58091960087FF4CC080E018DD80912E
:100DE000900090918601981731F08091870180934F
:100DF000CC01D2DE03C083E08093880181E038C05B
:100E000010919000D4FF14C040E060E081E04DDC20
:100E1000C1E0DC7029F0C26040E060E081E045DCC8
:100E20006C2F812FBFDDD0919600D7FDE9CF06C092
:100E300041E060E081E039DCC0E0EBCF80910E0260
:100E40009091220120918301213021F4813021F001
:100E5000843011F0891304C01092830181E001C035
:100E600080E010920E02882321F081E080938801B7
:100E700053DEFF91EF91DF91CF91BF91AF919F91A1
:100E80008F917F916F915F914F913F912F911F9122
:100E90000F900FBE0F901F901895CF93DF93CDB793
:100EA000DEB7C25AD1090FB6F894DEBF0FBECDBF70
:100EB000F894CE010196D8D90BDDCE010196E3D985
:100EC000789460E071E0CE0186579F4FF4D160E0E6
:100ED000CE0186579F4FD9D06FE071E0CE01865783
:100EE0009F4FE9D160E0CE0186579F4FCED041E0C1
:100EF00067E081E0DADB97E4E92EF12CEC0EFD1ED1
:100F000082E0E80EF11C01E315E7CE01895B9F4FFB
:100F1000B3DD8823C9F0CE0101968AD981112BC097
:100F2000CE01019693D9811126C0CE01019687D9B1
:100F3000811134C0CE01019690D981112FC0C757BD
:100F4000DF4F1882C958D040CE01019671D988234D
:100F500051F015DE0150110901151105B1F660E0DF
:100F600081E0A4DBD0CF8FE3D82E9ED0882389F3F5
:100F7000D1101CC0EECFD12CC757DF4F8881C95884
:100F8000D040D816E0F6E7E4F0E0EC0FFD1FED0DE1
:100F9000F11D60E0828167D0D394EECFAE01475758
:100FA0005F4FB701CE010196BCD9C9CF80E085D093
:100FB000682FCE0101966BDAD82E87FFD6CFC9CF26
:100FC0000F931F938B01811120C07695679580E068
:100FD00090E06058794687469F4F980140E050E086
:100FE0003FD1A4E05695479537952795AA95D1F717
:100FF000832F9927809382002093810086E080933D
:10100000840088E18093850027C0813029F520E0A5
:1010100030E0C901B80160537D4E8C4E9F4F43E0D4
:10102000660F771F881F991F4A95D1F7A90198016C
:10103000E4E0220F331F441F551FEA95D1F710D16A
:1010400021503109309392002093910086E08093E3
:10105000940088E18093950010928A011092890192
:101060001F910F910895611107C09091860095FF1F
:10107000FCCF809380000895613031F49091960008
:1010800095FFFCCF8093900008951F93CF93DF933B
:10109000162FEC018991882319F0612FE4DFFACF34
:1010A000DF91CF911F91089520918A01909189013C
:1010B00081E0291301C080E0089581111AC0F4DF96
:1010C0008823E9F3E0918A01FF27E7FDF095E757D0
:1010D000FE4F22813FB7F89480918A018F5F809301
:1010E0008A0180918A0160E49AD090938A013FBF7F
:1010F0000AC0813039F48091960087FFFCCF20919F
:10110000900001C020E0822F089520918A01409133
:101110008901332727FD309521503109552747FD97
:10112000509524173507A9F0E0918901FF27E7FDC5
:10113000F095E757FE4F8283809189018F5F8093FE
:1011400089018091890160E46AD09093890180E0EF
:1011500008958FEF08958091890180938A01089501
:101160001F920F920FB60F9211240F900FBE0F9087
:101170001F9018951F920F920FB60F9211242F9364
:101180003F934F935F936F937F938F939F93AF930F
:10119000BF93CF93EF93FF938091860087FF0DC09D
:1011A000C09180008C7109F0C0E08C2FAEDF8F3FC2
:1011B00099F7D1DF8C2FA9DFEFCFFF91EF91CF917E
:1011C000BF91AF919F918F917F916F915F914F915F
:1011D0003F912F910F900FBE0F901F9018951F9267
:1011E0000F920FB60F9211240F900FBE0F901F9009
:1011F00018951F920F920FB60F9211240F900FBEE9
:101200000F901F901895991B79E004C0991F9617AD
:1012100008F0961B881F7A95C9F78095089587FB7B
:10122000082E062687FD819567FD6195ECDF0EF49B
:10123000919507FC81950895AA1BBB1B51E107C03E
:10124000AA1FBB1FA617B70710F0A61BB70B881F56
:10125000991F5A95A9F780959095BC01CD010895E5
:10126000A1E21A2EAA1BBB1BFD010DC0AA1FBB1FAA
:10127000EE1FFF1FA217B307E407F50720F0A21B1C
:10128000B30BE40BF50B661F771F881F991F1A9489
:1012900069F760957095809590959B01AC01BD01B3
:1012A000CF010895FB01DC0102C001900D92415075
:1012B0005040D8F70895FB01DC0101900D92002009
:1012C000E1F70895E199FECF9FBB8EBBE09A992785
:1012D0008DB30895262FE199FECF9FBB8EBBE09A78
:1012E00001970DB2021639F01CBA2DBB0FB6F89457
:0C12F000E29AE19A0FBE0895F894FFCF37
:1012FC00506974696E7920302E302E320D0A006AD6
:10130C00756E6B792D7A7340676D782E64650D0A56
:02131C000000CF
:00000001FF
